:0504DC00344310100183
:10041500E4FEEF30E704D2938002C293EF25E0FFBC
:0E042500D292309003430701C2920EBE08E44B
:0104330022A6
:1004B3007F027E00120434C294D295C292D291225A
:0C04C300C295120415E4FF120415D29536
:0104CF00220A
:09046D007D017F211204767F223B
:10047600C295120415AC07AF05120415D295AF0448
:010486002253
:060366008B158A168917B1
:10036C00C295120415AD07E4FCECC395185017E4C4
:10037C00FF120415AB15AA16A9178C82758300EF12
:0A038C001201E10C80E3D295AF05E9
:010396002244
:0B02BD007BFF7A0479DC7513057F2AB3
:0602C8008B108A1189125F
:1002CE00C295120415AD07E4FCECC395135018ABA0
:1002DE00100512E512AA117002051114F91201C8C7
:0B02EE00FF1204150C80E2D295AF0552
:0102F90022E2
:10026E008B0C8A0D890EC2947BFF7A0479DC751390
:10027E00057F301202C81202BDAB0CAA0DA90E7575
:10028E0013047FA01202C812046D7D0A7F2412048B
:10029E00767D407F251204767D077F261204767DBB
:0F02AE000E7F20120476D2947F057E0002043466
:1003C500C2941202BD12046D7D407F251204767D14
:1003D500047F311204767D077F261204767D0F7F18
:0D03E50020120476D2947F057E00020434BD
:1003F2007F071204C38F202005033004137DFF7F83
:1004020027120476C2957FE1120415D2957F00224D
:030412007F012245
:060397008B1D8A1E891F68
:10039D00E4FB7F071204C38F20300612C294AB1DFD
:1003AD00AA1EA91F7518047F611203667B017DFFCC
:0703BD007F27120476AF0355
:0103C4002216
:10043400D3EF9400EE940040147D6E7C00ED1D70AB
:0D044400011CED4C70F7EF1F70E61E80E309
:010451002288
:1004A100E4FDFCC3ED9FEC9E50070DBD00010C80E7
:0104B100F258
:0104B2002227
:100487001204B3A2B7E433F5087B007A00790812A7
:0A049700026E1203F2EF60EB80F832
:10045200D2B67F087E001204A1C2B67F557E00127A
:0B04620004A1D2B67F0E7E000204A1B0
:0202FA008F2152
:1002FC00752200752308C2B6E5211392B67F057EE0
:10030C00001204A1D2B6E521C313F521E523152370
:10031C0070021522D3E5239400E522940050D77F78
:06032C00047E000204A1A2
:10033200E4F525752408D2B67F017E001204A1C21D
:10034200B6E525C313F525D2B630B6034325807F23
:10035200047E001204A11524E524D3940050D7AFE3
:03036200257E00F5
:010365002275
:100211001204527FCC1202FA7F441202FA7F7D7ED1
:10022100001204A11204527FCC1202FA7FBE120204
:10023100FA1203328E1B8F1C1203328E198F1AE5AC
:100241001A7F00FEEF251CFDE51B3EFCE412010EAA
:10025100E4FBFA7920783F1200031201478E268FC2
:0C026100277FC87E001204A1AE26AF2744
:01026D00226E
:10000300EC4D6011E8497017ED33EC3304600DE4F7
:10001300FCFFFEFD22E933E8330470F80201B3125A
:10002300017E58046009E4CC24815006285009025B
:1000330001BD2840030201BAC0E0EB4A7044B98015
:1000430006D0E0FB0201A9EF4E701CBD8008EBFF58
:10005300EAFEE9FD80EBE98DF0A4FEE5F00200EC99
:10006300E9CDF9EAFEEBFFEF89F0A4FCE5F0CE89D8
:10007300F0A42EFFE435F0CD89F0A42DFEE435F095
:100083008067EF4E7005BD80D780C3EF8BF0A4ACC3
:10009300F0EE8BF0A42CFCE435F0F8EF8AF0A42CFE
:1000A300E5F038FCE433CB8DF0A42CFCE5F03BF811
:1000B300EE8AF0A42CFCE5F038F8E433CF89F0A401
:1000C3002CFCE5F038CF3400CE89F0A42FFFE5F007
:1000D3003EFEE433C98DF0A42EFEE5F039CD8AF05F
:1000E300A42FFFE5F03EFEE43DFD33D0E0FB5007D7
:1000F3000BBB000F0201BDEC2CFCEF33FFEE33FE14
:06010300ED33FD02019541
:1001090075F020800E75F010800575F0087D007E71
:10011900007F003392D530D503120203EC3340102F
:10012900EF33FFEE33FEED33FDEC33FCD5F0ED227A
:0E013900E5F0247EA2D513CC92E7CDCEFF22B6
:10014700EDD2E7CD33EC3392D524814006E4FFFEB0
:10015700FDFC22FCE4CFCECDCC24E0501174FF800F
:10016700EDC3CC13CCCD13CDCE13CECF13CF0470AC
:07017700F030D5DE020203A7
:10017E00E9D2E7C933E833F892D5EDD2E7CD33ECC7
:07018E0033FC5002B2D52240
:10019500EC30E7100FBF000C0EBE00080DBD0004CB
:1001A5000BEB6014A2D5EB13FCED92E7FD2274FF77
:1001B500FCFDFEFF22E480F8A2D574FF13FC7D80D0
:0301C500E480EFE4
:030000000204D027
:0C04D000787FE4F6D8FD758127020487D0
:1001C800BB010689828A83E0225002E722BBFE0235
:0901D800E32289828A83E4932268
:1001E100F8BB010DE58229F582E5833AF583E8F054
:1001F100225006E92582C8F622BBFE05E92582C800
:02020100F222E7
:0E020300C3E49FFFE49EFEE49DFDE49CFC220C
:00000001FF
