:05000300344310100160
:10027800E4FEEF30E704D2938002C293EF25E0FF5B
:0E028800D292309003430701C2920EBE08E4EA
:010296002245
:100325007F027E00120297C294D295C292D2912288
:0C034300C295120278E4FF120278D295F5
:01034F00228B
:0902B5007D017F211202BE7F22AF
:1002BE00C295120278AC07AF05120278D295AF0440
:0102CE00220D
:0601CA008B0E8A0F891064
:1001D000C295120278AD07E4FCECC395115017E408
:1001E000FF120278AB0EAA0FA9108C82758300EF64
:0A01F0001201A80C80E3D295AF05C0
:0101FA0022E2
:0B0152007BFF7A0079037511057F2AFE
:06015D008B0E8A0F8910D1
:10016300C295120278AD07E4FCECC395115018ABAD
:100173000E0510E510AA0F7002050F14F912018F76
:0B018300FF1202780C80E2D295AF055D
:01018E00224E
:100103008B128A138914C2947BFF7A0079037511C9
:10011300057F3012015D120152AB12AA13A91475A7
:1001230011047FA012015D1202B57D0A7F24120221
:10013300BE7D407F251202BE7D077F261202BE7D53
:0F0143000E7F201202BED2947F057E000202972B
:10022B00C2941201521202B57D407F251202BE7D8F
:10023B00047F311202BE7D077F261202BE7D0F7F27
:0D024B00201202BED2947F057E00020297B1
:100313007F071203438F203005077DFF7F271202DB
:02032300BE22F8
:1001FB007F071203438F20300625C2947B007A00C1
:10020B0079087511047F611201CAAF081202CF7D04
:10021B00FF7F271202BEC2957FE2120278D295228F
:0D033500EFD3940040077E6EDEFE1F80F3C4
:010342002298
:10029700D3EF9400EE940040147D6E7C00ED1D704A
:0D02A700011CED4C70F7EF1F70E61E80E3A8
:0102B4002227
:1002E80012032512025812022B1201FBE5087004B2
:0802F800C2B780F2D2B780EE1C
:10030000102B3132333435363738393071776572E6
:020310007479FE
:10025800E4F589758E80F58A758CFDD28CD2A9D289
:10026800B9D2AFC20CC20BD20AC209F52AF52922AB
:1002CF00E4FED20C8F277C177D70ED1DAA04700100
:0802DF001C4A70F6EED39410E6
:0102E70022F4
:03000B0002009A56
:10009A00C0E0C0D0300B231529E529702875290343
:1000AA00D52609852325C20BD2098019E523C31356
:1000BA00F52330B010432380800B20B008D20B7593
:1000CA002904752609152AE52A7029752A03300C90
:1000DA0023E528700CC2B1852724752809C20A8035
:1000EA0013E524C313F524D52808D2B1C20CD20AC9
:0900FA00800292B1D0D0D0E032B6
:050350007F010202CF55
:0300000002000EED
:0C000E00787FE4F6D8FD75813C020055B7
:10018F00BB010689828A83E0225002E722BBFE026E
:09019F00E32289828A83E49322A1
:1001A800F8BB010DE58229F582E5833AF583E8F08D
:1001B800225006E92582C8F622BBFE05E92582C839
:0201C800F22221
:10001A000202E8E493A3F8E493A34003F68001F212
:10002A0008DFF48029E493A3F85407240CC8C333E7
:10003A00C4540F4420C8834004F456800146F6DFB6
:10004A00E4800B0102040810204080900300E47E43
:10005A00019360BCA3FF543F30E509541FFEE493AB
:10006A00A360010ECF54C025E060A840B8E493A372
:10007A00FAE493A3F8E493A3C8C582C8CAC583CA9D
:10008A00F0A3C8C582C8CAC583CADFE9DEE780BE55
:0103120000EA
:00000001FF
